{
  "contractName": "Potato",
  "abi": [
    {
      "anonymous": false,
      "inputs": [
        {
          "indexed": false,
          "internalType": "bytes32",
          "name": "",
          "type": "bytes32"
        }
      ],
      "name": "log",
      "type": "event"
    },
    {
      "inputs": [
        {
          "internalType": "uint256",
          "name": "_place",
          "type": "uint256"
        },
        {
          "internalType": "uint256",
          "name": "_proid",
          "type": "uint256"
        }
      ],
      "name": "Addproducer",
      "outputs": [],
      "stateMutability": "nonpayable",
      "type": "function"
    },
    {
      "inputs": [
        {
          "internalType": "string",
          "name": "_id",
          "type": "string"
        }
      ],
      "name": "AddPotato",
      "outputs": [],
      "stateMutability": "nonpayable",
      "type": "function"
    },
    {
      "inputs": [
        {
          "internalType": "string",
          "name": "_id",
          "type": "string"
        },
        {
          "internalType": "string",
          "name": "_class",
          "type": "string"
        },
        {
          "internalType": "string",
          "name": "_date",
          "type": "string"
        }
      ],
      "name": "NewPotato",
      "outputs": [
        {
          "internalType": "bool",
          "name": "",
          "type": "bool"
        }
      ],
      "stateMutability": "nonpayable",
      "type": "function"
    },
    {
      "inputs": [
        {
          "internalType": "string",
          "name": "_id",
          "type": "string"
        },
        {
          "internalType": "string",
          "name": "_date",
          "type": "string"
        },
        {
          "internalType": "string",
          "name": "_msg",
          "type": "string"
        }
      ],
      "name": "updatepotato",
      "outputs": [
        {
          "internalType": "bool",
          "name": "",
          "type": "bool"
        }
      ],
      "stateMutability": "nonpayable",
      "type": "function"
    },
    {
      "inputs": [
        {
          "internalType": "string",
          "name": "_id",
          "type": "string"
        },
        {
          "internalType": "uint256",
          "name": "_weight",
          "type": "uint256"
        },
        {
          "internalType": "bool",
          "name": "_icheck",
          "type": "bool"
        },
        {
          "internalType": "string",
          "name": "_date",
          "type": "string"
        },
        {
          "internalType": "string",
          "name": "_msg",
          "type": "string"
        }
      ],
      "name": "checkpotato",
      "outputs": [
        {
          "internalType": "bool",
          "name": "",
          "type": "bool"
        }
      ],
      "stateMutability": "nonpayable",
      "type": "function"
    },
    {
      "inputs": [
        {
          "internalType": "string",
          "name": "_id",
          "type": "string"
        },
        {
          "internalType": "string",
          "name": "_date",
          "type": "string"
        },
        {
          "internalType": "string",
          "name": "_msg",
          "type": "string"
        },
        {
          "internalType": "uint256",
          "name": "_weight",
          "type": "uint256"
        }
      ],
      "name": "storepotato",
      "outputs": [
        {
          "internalType": "bool",
          "name": "",
          "type": "bool"
        }
      ],
      "stateMutability": "nonpayable",
      "type": "function"
    },
    {
      "inputs": [
        {
          "internalType": "string",
          "name": "_id",
          "type": "string"
        }
      ],
      "name": "getPotato",
      "outputs": [
        {
          "components": [
            {
              "internalType": "string",
              "name": "id",
              "type": "string"
            },
            {
              "internalType": "uint256",
              "name": "weight",
              "type": "uint256"
            },
            {
              "internalType": "uint256",
              "name": "balance",
              "type": "uint256"
            },
            {
              "internalType": "bool",
              "name": "icheck",
              "type": "bool"
            },
            {
              "internalType": "string",
              "name": "class",
              "type": "string"
            },
            {
              "internalType": "uint256",
              "name": "place",
              "type": "uint256"
            },
            {
              "components": [
                {
                  "internalType": "uint256",
                  "name": "proid",
                  "type": "uint256"
                },
                {
                  "internalType": "string",
                  "name": "date",
                  "type": "string"
                },
                {
                  "internalType": "string",
                  "name": "msgg",
                  "type": "string"
                }
              ],
              "internalType": "struct Potato.Msg[]",
              "name": "history",
              "type": "tuple[]"
            }
          ],
          "internalType": "struct Potato.Potato",
          "name": "",
          "type": "tuple"
        }
      ],
      "stateMutability": "view",
      "type": "function"
    },
    {
      "inputs": [],
      "name": "showProducer",
      "outputs": [
        {
          "internalType": "address[]",
          "name": "",
          "type": "address[]"
        }
      ],
      "stateMutability": "view",
      "type": "function"
    },
    {
      "inputs": [],
      "name": "showPotato",
      "outputs": [
        {
          "internalType": "string[]",
          "name": "",
          "type": "string[]"
        }
      ],
      "stateMutability": "view",
      "type": "function"
    },
    {
      "inputs": [
        {
          "internalType": "string",
          "name": "_a",
          "type": "string"
        },
        {
          "internalType": "string",
          "name": "_b",
          "type": "string"
        },
        {
          "internalType": "string",
          "name": "_c",
          "type": "string"
        }
      ],
      "name": "strConcat",
      "outputs": [
        {
          "internalType": "string",
          "name": "",
          "type": "string"
        }
      ],
      "stateMutability": "pure",
      "type": "function"
    },
    {
      "inputs": [
        {
          "internalType": "string",
          "name": "_id",
          "type": "string"
        },
        {
          "internalType": "uint256",
          "name": "_weight",
          "type": "uint256"
        },
        {
          "internalType": "bool",
          "name": "_icheck",
          "type": "bool"
        },
        {
          "internalType": "string",
          "name": "_class",
          "type": "string"
        },
        {
          "internalType": "uint256",
          "name": "_place",
          "type": "uint256"
        },
        {
          "components": [
            {
              "internalType": "uint256",
              "name": "proid",
              "type": "uint256"
            },
            {
              "internalType": "string",
              "name": "date",
              "type": "string"
            },
            {
              "internalType": "string",
              "name": "msgg",
              "type": "string"
            }
          ],
          "internalType": "struct Potato.Msg[]",
          "name": "_localhis",
          "type": "tuple[]"
        }
      ],
      "name": "checkhash",
      "outputs": [
        {
          "internalType": "bool",
          "name": "",
          "type": "bool"
        }
      ],
      "stateMutability": "nonpayable",
      "type": "function"
    }
  ],
  "bytecode": "0x608060405234801561001057600080fd5b506125ad806100206000396000f3fe608060405234801561001057600080fd5b50600436106100a95760003560e01c80636d381729116100715780636d38172914610166578063a1cd2e1214610196578063b1722ae1146101c6578063d7c0d157146101e2578063dbd5247114610212578063fae25aed14610242576100a9565b80630c8d522d146100ae5780631f567221146100ca5780633643af74146100fa5780633d0dad3d146101185780634112987c14610136575b600080fd5b6100c860048036038101906100c39190611611565b610272565b005b6100e460048036038101906100df9190611797565b61036a565b6040516100f1919061186d565b60405180910390f35b6101026104ee565b60405161010f9190611978565b60405180910390f35b61012061057c565b60405161012d9190611ae4565b60405180910390f35b610150600480360381019061014b9190611b06565b610655565b60405161015d9190611bf7565b60405180910390f35b610180600480360381019061017b9190611b06565b61088a565b60405161018d919061186d565b60405180910390f35b6101b060048036038101906101ab9190611dd1565b610989565b6040516101bd919061186d565b60405180910390f35b6101e060048036038101906101db9190611eb2565b610c81565b005b6101fc60048036038101906101f79190611b06565b610d00565b604051610209919061186d565b60405180910390f35b61022c60048036038101906102279190611efb565b610f74565b604051610239919061186d565b60405180910390f35b61025c60048036038101906102579190611eb2565b6110f9565b60405161026991906121ab565b60405180910390f35b60606001339080600181540180825580915050600190039060005260206000200160009091909190916101000a81548173ffffffffffffffffffffffffffffffffffffffff021916908373ffffffffffffffffffffffffffffffffffffffff160217905550604051806060016040528084815260200183815260200182815250600360003373ffffffffffffffffffffffffffffffffffffffff1673ffffffffffffffffffffffffffffffffffffffff16815260200190815260200160002060008201518160000155602082015181600101556040820151816002019080519060200190610361929190611421565b50905050505050565b60006004600360003373ffffffffffffffffffffffffffffffffffffffff1673ffffffffffffffffffffffffffffffffffffffff1681526020019081526020016000206001015414156104e15760006002866040516103c99190612209565b9081526020016040518091039020905082816002015411156104d7578281600201546103f5919061224f565b8160020181905550806006016040518060600160405280600360003373ffffffffffffffffffffffffffffffffffffffff1673ffffffffffffffffffffffffffffffffffffffff1681526020019081526020016000206001015481526020018781526020018681525090806001815401808255809150506001900390600052602060002090600302016000909190919091506000820151816000015560208201518160010190805190602001906104ad929190611481565b5060408201518160020190805190602001906104ca929190611481565b50505060019150506104e6565b60009150506104e6565b600090505b949350505050565b6060600180548060200260200160405190810160405280929190818152602001828054801561057257602002820191906000526020600020905b8160009054906101000a900473ffffffffffffffffffffffffffffffffffffffff1673ffffffffffffffffffffffffffffffffffffffff1681526020019060010190808311610528575b5050505050905090565b60606000805480602002602001604051908101604052809291908181526020016000905b8282101561064c5783829060005260206000200180546105bf906122b2565b80601f01602080910402602001604051908101604052809291908181526020018280546105eb906122b2565b80156106385780601f1061060d57610100808354040283529160200191610638565b820191906000526020600020905b81548152906001019060200180831161061b57829003601f168201915b5050505050815260200190600101906105a0565b50505050905090565b6060600084905060008490506000849050600081518351855161067891906122e4565b61068291906122e4565b67ffffffffffffffff81111561069b5761069a61166c565b5b6040519080825280601f01601f1916602001820160405280156106cd5781602001600182028036833780820191505090505b50905060008190506000805b8651811015610761578681815181106106f5576106f461233a565b5b602001015160f81c60f81b83838061070c90612369565b94508151811061071f5761071e61233a565b5b60200101907effffffffffffffffffffffffffffffffffffffffffffffffffffffffffffff1916908160001a905350808061075990612369565b9150506106d9565b5060005b85518110156107ed578581815181106107815761078061233a565b5b602001015160f81c60f81b83838061079890612369565b9450815181106107ab576107aa61233a565b5b60200101907effffffffffffffffffffffffffffffffffffffffffffffffffffffffffffff1916908160001a90535080806107e590612369565b915050610765565b5060005b84518110156108795784818151811061080d5761080c61233a565b5b602001015160f81c60f81b83838061082490612369565b9450815181106108375761083661233a565b5b60200101907effffffffffffffffffffffffffffffffffffffffffffffffffffffffffffff1916908160001a905350808061087190612369565b9150506107f1565b508296505050505050509392505050565b60008060028560405161089d9190612209565b90815260200160405180910390209050806006016040518060600160405280600360003373ffffffffffffffffffffffffffffffffffffffff1673ffffffffffffffffffffffffffffffffffffffff16815260200190815260200160002060010154815260200186815260200185815250908060018154018082558091505060019003906000526020600020906003020160009091909190915060008201518160000155602082015181600101908051906020019061095d929190611481565b50604082015181600201908051906020019061097a929190611481565b50505060019150509392505050565b60008060028860405161099c9190612209565b908152602001604051809103902090506000604051806020016040528060008152509050600060405180602001604052806000815250905060005b8360060180549050811015610b6457610b4f83856006018381548110610a00576109ff61233a565b5b90600052602060002090600302016001018054610a1c906122b2565b80601f0160208091040260200160405190810160405280929190818152602001828054610a48906122b2565b8015610a955780601f10610a6a57610100808354040283529160200191610a95565b820191906000526020600020905b815481529060010190602001808311610a7857829003601f168201915b5050505050866006018481548110610ab057610aaf61233a565b5b90600052602060002090600302016002018054610acc906122b2565b80601f0160208091040260200160405190810160405280929190818152602001828054610af8906122b2565b8015610b455780601f10610b1a57610100808354040283529160200191610b45565b820191906000526020600020905b815481529060010190602001808311610b2857829003601f168201915b5050505050610655565b92508080610b5c90612369565b9150506109d7565b5060005b8551811015610bcd57610bb882878381518110610b8857610b8761233a565b5b602002602001015160200151888481518110610ba757610ba661233a565b5b602002602001015160400151610655565b91508080610bc590612369565b915050610b68565b50600083600401838560030160009054906101000a900460ff168660000187600501548860010154604051602001610c0a969594939291906124af565b604051602081830303815290604052805190602001209050600088838b8e8b8f604051602001610c3f96959493929190612513565b60405160208183030381529060405280519060200120905080821415610c6d57600195505050505050610c77565b6000955050505050505b9695505050505050565b600360003373ffffffffffffffffffffffffffffffffffffffff1673ffffffffffffffffffffffffffffffffffffffff16815260200190815260200160002060020181908060018154018082558091505060019003906000526020600020016000909190919091509080519060200190610cfc929190611481565b5050565b60006001600360003373ffffffffffffffffffffffffffffffffffffffff1673ffffffffffffffffffffffffffffffffffffffff168152602001908152602001600020600101541415610f6857600084908060018154018082558091505060019003906000526020600020016000909190919091509080519060200190610d88929190611481565b506000600285604051610d9b9190612209565b9081526020016040518091039020905084816000019080519060200190610dc3929190611481565b5060008160030160006101000a81548160ff02191690831515021790555083816004019080519060200190610df9929190611481565b5060008160020181905550600360003373ffffffffffffffffffffffffffffffffffffffff1673ffffffffffffffffffffffffffffffffffffffff16815260200190815260200160002060000154816005018190555060008160010181905550806006016040518060600160405280600360003373ffffffffffffffffffffffffffffffffffffffff1673ffffffffffffffffffffffffffffffffffffffff1681526020019081526020016000206001015481526020018581526020016040518060400160405280600581526020017f73746172740000000000000000000000000000000000000000000000000000008152508152509080600181540180825580915050600190039060005260206000209060030201600090919091909150600082015181600001556020820151816001019080519060200190610f3e929190611481565b506040820151816002019080519060200190610f5b929190611481565b5050506001915050610f6d565b600090505b9392505050565b60006002600360003373ffffffffffffffffffffffffffffffffffffffff1673ffffffffffffffffffffffffffffffffffffffff1681526020019081526020016000206001015414156110eb576000600287604051610fd39190612209565b90815260200160405180910390209050848160030160006101000a81548160ff021916908315150217905550858160010181905550858160020181905550806006016040518060600160405280600360003373ffffffffffffffffffffffffffffffffffffffff1673ffffffffffffffffffffffffffffffffffffffff1681526020019081526020016000206001015481526020018681526020018581525090806001815401808255809150506001900390600052602060002090600302016000909190919091506000820151816000015560208201518160010190805190602001906110c1929190611481565b5060408201518160020190805190602001906110de929190611481565b50505060019150506110f0565b600090505b95945050505050565b611101611507565b60006002836040516111139190612209565b90815260200160405180910390209050806040518060e001604052908160008201805461113f906122b2565b80601f016020809104026020016040519081016040528092919081815260200182805461116b906122b2565b80156111b85780601f1061118d576101008083540402835291602001916111b8565b820191906000526020600020905b81548152906001019060200180831161119b57829003601f168201915b5050505050815260200160018201548152602001600282015481526020016003820160009054906101000a900460ff16151515158152602001600482018054611200906122b2565b80601f016020809104026020016040519081016040528092919081815260200182805461122c906122b2565b80156112795780601f1061124e57610100808354040283529160200191611279565b820191906000526020600020905b81548152906001019060200180831161125c57829003601f168201915b505050505081526020016005820154815260200160068201805480602002602001604051908101604052809291908181526020016000905b828210156114115783829060005260206000209060030201604051806060016040529081600082015481526020016001820180546112ee906122b2565b80601f016020809104026020016040519081016040528092919081815260200182805461131a906122b2565b80156113675780601f1061133c57610100808354040283529160200191611367565b820191906000526020600020905b81548152906001019060200180831161134a57829003601f168201915b50505050508152602001600282018054611380906122b2565b80601f01602080910402602001604051908101604052809291908181526020018280546113ac906122b2565b80156113f95780601f106113ce576101008083540402835291602001916113f9565b820191906000526020600020905b8154815290600101906020018083116113dc57829003601f168201915b505050505081525050815260200190600101906112b1565b5050505081525050915050919050565b828054828255906000526020600020908101928215611470579160200282015b8281111561146f57825182908051906020019061145f929190611481565b5091602001919060010190611441565b5b50905061147d9190611546565b5090565b82805461148d906122b2565b90600052602060002090601f0160209004810192826114af57600085556114f6565b82601f106114c857805160ff19168380011785556114f6565b828001600101855582156114f6579182015b828111156114f55782518255916020019190600101906114da565b5b509050611503919061156a565b5090565b6040518060e001604052806060815260200160008152602001600081526020016000151581526020016060815260200160008152602001606081525090565b5b80821115611566576000818161155d9190611587565b50600101611547565b5090565b5b8082111561158357600081600090555060010161156b565b5090565b508054611593906122b2565b6000825580601f106115a557506115c4565b601f0160209004906000526020600020908101906115c3919061156a565b5b50565b6000604051905090565b600080fd5b600080fd5b6000819050919050565b6115ee816115db565b81146115f957600080fd5b50565b60008135905061160b816115e5565b92915050565b60008060408385031215611628576116276115d1565b5b6000611636858286016115fc565b9250506020611647858286016115fc565b9150509250929050565b600080fd5b600080fd5b6000601f19601f8301169050919050565b7f4e487b7100000000000000000000000000000000000000000000000000000000600052604160045260246000fd5b6116a48261165b565b810181811067ffffffffffffffff821117156116c3576116c261166c565b5b80604052505050565b60006116d66115c7565b90506116e2828261169b565b919050565b600067ffffffffffffffff8211156117025761170161166c565b5b61170b8261165b565b9050602081019050919050565b82818337600083830152505050565b600061173a611735846116e7565b6116cc565b90508281526020810184848401111561175657611755611656565b5b611761848285611718565b509392505050565b600082601f83011261177e5761177d611651565b5b813561178e848260208601611727565b91505092915050565b600080600080608085870312156117b1576117b06115d1565b5b600085013567ffffffffffffffff8111156117cf576117ce6115d6565b5b6117db87828801611769565b945050602085013567ffffffffffffffff8111156117fc576117fb6115d6565b5b61180887828801611769565b935050604085013567ffffffffffffffff811115611829576118286115d6565b5b61183587828801611769565b9250506060611846878288016115fc565b91505092959194509250565b60008115159050919050565b61186781611852565b82525050565b6000602082019050611882600083018461185e565b92915050565b600081519050919050565b600082825260208201905092915050565b6000819050602082019050919050565b600073ffffffffffffffffffffffffffffffffffffffff82169050919050565b60006118df826118b4565b9050919050565b6118ef816118d4565b82525050565b600061190183836118e6565b60208301905092915050565b6000602082019050919050565b600061192582611888565b61192f8185611893565b935061193a836118a4565b8060005b8381101561196b57815161195288826118f5565b975061195d8361190d565b92505060018101905061193e565b5085935050505092915050565b60006020820190508181036000830152611992818461191a565b905092915050565b600081519050919050565b600082825260208201905092915050565b6000819050602082019050919050565b600081519050919050565b600082825260208201905092915050565b60005b83811015611a005780820151818401526020810190506119e5565b83811115611a0f576000848401525b50505050565b6000611a20826119c6565b611a2a81856119d1565b9350611a3a8185602086016119e2565b611a438161165b565b840191505092915050565b6000611a5a8383611a15565b905092915050565b6000602082019050919050565b6000611a7a8261199a565b611a8481856119a5565b935083602082028501611a96856119b6565b8060005b85811015611ad25784840389528151611ab38582611a4e565b9450611abe83611a62565b925060208a01995050600181019050611a9a565b50829750879550505050505092915050565b60006020820190508181036000830152611afe8184611a6f565b905092915050565b600080600060608486031215611b1f57611b1e6115d1565b5b600084013567ffffffffffffffff811115611b3d57611b3c6115d6565b5b611b4986828701611769565b935050602084013567ffffffffffffffff811115611b6a57611b696115d6565b5b611b7686828701611769565b925050604084013567ffffffffffffffff811115611b9757611b966115d6565b5b611ba386828701611769565b9150509250925092565b600082825260208201905092915050565b6000611bc9826119c6565b611bd38185611bad565b9350611be38185602086016119e2565b611bec8161165b565b840191505092915050565b60006020820190508181036000830152611c118184611bbe565b905092915050565b611c2281611852565b8114611c2d57600080fd5b50565b600081359050611c3f81611c19565b92915050565b600067ffffffffffffffff821115611c6057611c5f61166c565b5b602082029050602081019050919050565b600080fd5b600080fd5b600080fd5b600060608284031215611c9657611c95611c76565b5b611ca060606116cc565b90506000611cb0848285016115fc565b600083015250602082013567ffffffffffffffff811115611cd457611cd3611c7b565b5b611ce084828501611769565b602083015250604082013567ffffffffffffffff811115611d0457611d03611c7b565b5b611d1084828501611769565b60408301525092915050565b6000611d2f611d2a84611c45565b6116cc565b90508083825260208201905060208402830185811115611d5257611d51611c71565b5b835b81811015611d9957803567ffffffffffffffff811115611d7757611d76611651565b5b808601611d848982611c80565b85526020850194505050602081019050611d54565b5050509392505050565b600082601f830112611db857611db7611651565b5b8135611dc8848260208601611d1c565b91505092915050565b60008060008060008060c08789031215611dee57611ded6115d1565b5b600087013567ffffffffffffffff811115611e0c57611e0b6115d6565b5b611e1889828a01611769565b9650506020611e2989828a016115fc565b9550506040611e3a89828a01611c30565b945050606087013567ffffffffffffffff811115611e5b57611e5a6115d6565b5b611e6789828a01611769565b9350506080611e7889828a016115fc565b92505060a087013567ffffffffffffffff811115611e9957611e986115d6565b5b611ea589828a01611da3565b9150509295509295509295565b600060208284031215611ec857611ec76115d1565b5b600082013567ffffffffffffffff811115611ee657611ee56115d6565b5b611ef284828501611769565b91505092915050565b600080600080600060a08688031215611f1757611f166115d1565b5b600086013567ffffffffffffffff811115611f3557611f346115d6565b5b611f4188828901611769565b9550506020611f52888289016115fc565b9450506040611f6388828901611c30565b935050606086013567ffffffffffffffff811115611f8457611f836115d6565b5b611f9088828901611769565b925050608086013567ffffffffffffffff811115611fb157611fb06115d6565b5b611fbd88828901611769565b9150509295509295909350565b611fd3816115db565b82525050565b611fe281611852565b82525050565b600081519050919050565b600082825260208201905092915050565b6000819050602082019050919050565b600060608301600083015161202c6000860182611fca565b50602083015184820360208601526120448282611a15565b9150506040830151848203604086015261205e8282611a15565b9150508091505092915050565b60006120778383612014565b905092915050565b6000602082019050919050565b600061209782611fe8565b6120a18185611ff3565b9350836020820285016120b385612004565b8060005b858110156120ef57848403895281516120d0858261206b565b94506120db8361207f565b925060208a019950506001810190506120b7565b50829750879550505050505092915050565b600060e083016000830151848203600086015261211e8282611a15565b91505060208301516121336020860182611fca565b5060408301516121466040860182611fca565b5060608301516121596060860182611fd9565b50608083015184820360808601526121718282611a15565b91505060a083015161218660a0860182611fca565b5060c083015184820360c086015261219e828261208c565b9150508091505092915050565b600060208201905081810360008301526121c58184612101565b905092915050565b600081905092915050565b60006121e3826119c6565b6121ed81856121cd565b93506121fd8185602086016119e2565b80840191505092915050565b600061221582846121d8565b915081905092915050565b7f4e487b7100000000000000000000000000000000000000000000000000000000600052601160045260246000fd5b600061225a826115db565b9150612265836115db565b92508282101561227857612277612220565b5b828203905092915050565b7f4e487b7100000000000000000000000000000000000000000000000000000000600052602260045260246000fd5b600060028204905060018216806122ca57607f821691505b602082108114156122de576122dd612283565b5b50919050565b60006122ef826115db565b91506122fa836115db565b9250827fffffffffffffffffffffffffffffffffffffffffffffffffffffffffffffffff0382111561232f5761232e612220565b5b828201905092915050565b7f4e487b7100000000000000000000000000000000000000000000000000000000600052603260045260246000fd5b6000612374826115db565b91507fffffffffffffffffffffffffffffffffffffffffffffffffffffffffffffffff8214156123a7576123a6612220565b5b600182019050919050565b60008190508160005260206000209050919050565b600081546123d4816122b2565b6123de81866121cd565b945060018216600081146123f9576001811461240a5761243d565b60ff1983168652818601935061243d565b612413856123b2565b60005b8381101561243557815481890152600182019150602081019050612416565b838801955050505b50505092915050565b60008160f81b9050919050565b600061245e82612446565b9050919050565b600061247082612453565b9050919050565b61248861248382611852565b612465565b82525050565b6000819050919050565b6124a96124a4826115db565b61248e565b82525050565b60006124bb82896123c7565b91506124c782886121d8565b91506124d38287612477565b6001820191506124e382866123c7565b91506124ef8285612498565b6020820191506124ff8284612498565b602082019150819050979650505050505050565b600061251f82896121d8565b915061252b82886121d8565b91506125378287612477565b60018201915061254782866121d8565b91506125538285612498565b6020820191506125638284612498565b60208201915081905097965050505050505056fea2646970667358221220ea17d7f81a73a259eabb2df72aafde5fcc623e602c8a049fa85d0a1740df457f64736f6c634300080a0033",
  "immutableReferences": {},
  "source": "// SPDX-License-Identifier: MIT\r\n//  ( [])  \r\npragma solidity ^ 0.8.7;\r\npragma experimental ABIEncoderV2;\r\ncontract Potato {\r\n     struct Msg{\r\n        uint proid;\r\n        string date;\r\n        string msgg;\r\n    }\r\n    struct Producer{\r\n        uint place;//1~3434\r\n        uint proid;//1= 2= 3= 4=\r\n        string[] Mypotato;\r\n    }\r\n    struct Potato{\r\n        string id;\r\n        uint weight;//\r\n        uint balance;// \r\n        bool icheck;\r\n        string class;\r\n        uint place;\r\n        Msg[] history;\r\n\r\n    }\r\n    string[] potatoList;\r\n    address[] producerList;\r\n    mapping (string => Potato) mapPotato;\r\n    mapping (address => Producer) mapProducer;\r\n    event log(bytes32);\r\n\r\n    // ;proid 1= 2= 3=,4=;\r\n     function Addproducer(uint _place,uint _proid)public {\r\n        string[] memory _Mypotato;\r\n        producerList.push(msg.sender);\r\n        mapProducer[msg.sender]=Producer(_place,_proid,_Mypotato);\r\n    }\r\n\r\n    // ,\r\n    function AddPotato(string memory _id)public{\r\n        mapProducer[msg.sender].Mypotato.push(_id);\r\n    }\r\n\r\n    // \r\n    function NewPotato(string memory _id,string memory _class, string memory _date)public returns(bool){\r\n        if(mapProducer[msg.sender].proid==1){\r\n       potatoList.push(_id);\r\n       Potato storage quest = mapPotato[_id];\r\n       quest.id=_id;\r\n       quest.icheck=false;\r\n       quest.class=_class;\r\n       quest.balance=0;\r\n       quest.place=mapProducer[msg.sender].place;\r\n       quest.weight=0;\r\n       quest.history.push(Msg(mapProducer[msg.sender].proid,_date,\"start\"));\r\n      \r\n       return true; //\r\n       }\r\n       return false; //\r\n    }\r\n\r\n    // \r\n    function updatepotato(string memory _id,string memory _date,string memory _msg)public returns(bool){  \r\n         Potato storage quest = mapPotato[_id];\r\n         quest.history.push(Msg(mapProducer[msg.sender].proid,_date,_msg));\r\n         return true;\r\n    }\r\n\r\n    //  \r\n    function checkpotato(string memory _id,uint _weight,bool _icheck,string memory _date,string memory _msg)public returns(bool){\r\n        if(mapProducer[msg.sender].proid==2){\r\n        Potato storage quest = mapPotato[_id];\r\n        quest.icheck=_icheck;\r\n        quest.weight=_weight;\r\n        quest.balance=_weight;\r\n        quest.history.push(Msg(mapProducer[msg.sender].proid,_date,_msg));\r\n        return true;\r\n        }\r\n        else{\r\n            return false;\r\n        }\r\n\r\n    }\r\n\r\n\r\n    // \r\n    function storepotato(string memory _id,string memory _date,string memory _msg,uint _weight)public returns(bool){\r\n        if(mapProducer[msg.sender].proid==4){\r\n            Potato storage quest = mapPotato[_id];\r\n            if(quest.balance>_weight){\r\n                quest.balance=quest.balance-_weight;\r\n                quest.history.push(Msg(mapProducer[msg.sender].proid,_date,_msg));\r\n                 return true;\r\n            }\r\n            else return false;\r\n        }\r\n        return false;\r\n    }\r\n\r\n    //\r\n    function getPotato(string memory _id)public view returns( Potato memory){\r\n        Potato storage quest = mapPotato[_id];\r\n        return quest;\r\n    }\r\n\r\n    function showProducer()view public returns(address[] memory){\r\n        return producerList;\r\n    }\r\n\r\n    function showPotato()view public returns(string[] memory){\r\n        return potatoList;\r\n    }\r\n\r\n\r\n\r\n    // \r\n     function strConcat(string memory _a, string memory _b,string memory _c) public pure returns (string memory){\r\n        bytes memory _ba = bytes(_a);\r\n        bytes memory _bb = bytes(_b);\r\n        bytes memory _bc = bytes(_c);\r\n        string memory ret = new string(_ba.length + _bb.length + _bc.length);\r\n        bytes memory bret = bytes(ret);\r\n        uint k = 0;\r\n        for (uint i = 0; i < _ba.length; i++)bret[k++] = _ba[i];\r\n        for (uint i = 0; i < _bb.length; i++) bret[k++] = _bb[i];\r\n        for (uint i = 0; i < _bc.length; i++) bret[k++] = _bc[i];\r\n        return string(ret);\r\n   } \r\n\r\n   // \r\n    function checkhash(string memory _id,uint _weight,bool _icheck,string memory _class,uint _place, Msg[] memory _localhis)public returns(bool){\r\n        Potato storage quest = mapPotato[_id];\r\n        string memory _history=\"\";\r\n        string memory _local=\"\";\r\n        for(uint i=0;i<quest.history.length;i++){\r\n            _history=strConcat(_history,quest.history[i].date,quest.history[i].msgg);\r\n        }\r\n        for(uint i=0;i<_localhis.length;i++){\r\n            _local=strConcat(_local,_localhis[i].date,_localhis[i].msgg);\r\n        }\r\n        bytes32 expected_hash=keccak256(abi.encodePacked(quest.class,_history,quest.icheck,quest.id,quest.place,quest.weight));\r\n        bytes32 result_hash=keccak256(abi.encodePacked(_class,_local,_icheck,_id,_place,_weight));\r\n       if(expected_hash==result_hash){\r\n           return true;\r\n       }\r\n       else{\r\n           return false;\r\n       }\r\n    }\r\n\r\n}",
  "sourcePath": "/home/bian/source/Dapp/Potato/contracts/Potato.sol",
  "compiler": {
    "name": "solc",
    "version": "0.8.10+commit.fc410830.Emscripten.clang"
  },
  "schemaVersion": "3.4.3",
  "updatedAt": "2022-10-19T11:17:39.992Z",
  "devdoc": {
    "kind": "dev",
    "methods": {},
    "version": 1
  },
  "userdoc": {
    "kind": "user",
    "methods": {},
    "version": 1
  }
}